:100000000C9471010C94A2010C94A2010C94A20115
:100010000C94A2010C94A2010C94A2010C94A201D4
:100020000C94A2010C94A2010C94A2010C94A201C4
:100030000C94A2010C94A2010C94A2010C94A201B4
:100040000C94A2010C94A2010C94A2010C94A201A4
:100050000C94A2010C94A2010C94A2010C945E06D3
:100060000C94A2010C9428060C94FE050C94A20199
:100070000C94A2010C94A2010C94A2010C94A20174
:100080000C94A2010C94A2010C94A2010C94A20164
:100090000C94A2010C94A2010C94A2010C94A20154
:1000A0000C94A2010C94A2010C94A2010C94A20144
:1000B0000C94A2010C94A2010C94A2010C94A20134
:1000C0000C94A2010C94A2010C94A2010C94A20124
:1000D0000C94A2010C94A2010C94A2010C94A20114
:1000E0000C94A2010C94DB0A0C944D090C94360379
:1000F0000C9429030C94D80A0C9400030C94080364
:100100000C94BE0B0C94A4010C94F6020C940E09F2
:100110000C9452090C9448090C9415030C94D50ABC
:100120000C94D1010C9443090C9423030C94A8065D
:100130000C94B90B0C94050B0C94C50A0C94C80BC9
:100140000C943B030C94FC020C941F040C94630B62
:100150000C9437030C9404030C942D030C943A0272
:100160000C94DE0A0C9431030C9402020C941E04CD
:100170000C9487020C94CF0A0C941B030C9411036B
:100180000C94C30B0C94CD0B0C94D70B0C94E00186
:100190000C94D20B0C94070B0C941F030C94D20AF2
:1001A0000C94F4010C94B40B0C9457090C943E0974
:1001B0000C94CF050C9434090C9439090C940B035E
:1001C00000002100240027002A002D003000330009
:1001D00001010000040107010A01000022002500BE
:1001E00028002B002E003100340002010000050120
:1001F00008010B01000020002300260029002C002C
:100200002F0032000001000003010601090105056D
:100210000505070508080808020202020A0A08087C
:1002200004040404010101010101010103030303AA
:1002300003030303040707070C0C0C0C0C0C0C0C39
:100240000202020206060606060606060B0B0B0B4A
:100250000B0B0B0B0102102020080810204010206F
:10026000408002010201080402010102040810207A
:100270004080804020100804020180040201804078
:1002800020100804020108040201010204081020E1
:100290004080010204081020408000000A0B02097F
:1002A0000C0D0E0807030401000000000000000010
:1002B000000000000000000000000000000000003E
:1002C00000000000000012111000000000000000FB
:1002D000000000000000000000000000000000001E
:1002E000A80611241FBECFEFD1E2DEBFCDBF00E0D4
:1002F0000CBF14E0A0E0B2E0E0E1F8E100E00BBFE9
:1003000002C007900D92A438B107D9F725E0A4E800
:10031000B4E001C01D92A438B207E1F711E0C1E7D3
:10032000D1E000E006C021970109802FFE010E9464
:10033000FE0BC037D10780E00807A9F70E94F3063B
:100340000C94060C0C940000AF92BF92CF92DF92F7
:10035000EF92FF920F931F93CF93DF936C017B017A
:100360008B01040F151FEB015E01AE18BF08C0170B
:10037000D10759F06991D601ED91FC910190F0817E
:10038000E02DC6011995892B79F7C501DF91CF9131
:100390001F910F91FF90EF90DF90CF90BF90AF90A3
:1003A0000895FC01538D448D252F30E0842F90E07B
:1003B000821B930B541710F0CF9608950197089560
:1003C000FC01918D828D981761F0A28DAE0FBF2F29
:1003D000B11D5D968C91928D9F5F9F73928F90E07F
:1003E00008958FEF9FEF0895FC01918D828D9817EE
:1003F00031F0828DE80FF11D858D90E008958FEF2B
:100400009FEF0895FC01918D228D892F90E0805CF3
:100410009F4F821B91098F73992708958FEC94E069
:100420000E94020221E0892B09F420E0822F089526
:10043000FC01A48DA80FB92FB11DA35ABF4F2C9159
:10044000848D90E001968F739927848FA689B78950
:100450002C93A089B1898C91837080648C93938D47
:10046000848D981306C00288F389E02D80818F7DEA
:1004700080830895EF92FF920F931F93CF93DF93A2
:10048000EC0181E0888F9B8D8C8D98131AC0E889D0
:10049000F989808185FF15C09FB7F894EE89FF899F
:1004A0006083E889F98980818370806480839FBF3D
:1004B00081E090E0DF91CF911F910F91FF90EF903D
:1004C0000895F62E0B8D10E00F5F1F4F0F7311274D
:1004D000E02E8C8D8E110CC00FB607FCFACFE88988
:1004E000F989808185FFF5CFCE010E941802F1CFF6
:1004F000EB8DEC0FFD2FF11DE35AFF4FF0829FB7FC
:10050000F8940B8FEA89FB8980818062CFCFCF93EB
:10051000DF93EC01888D8823B9F0AA89BB89E8892B
:10052000F9898C9185FD03C0808186FD0DC00FB6D1
:1005300007FCF7CF8C9185FFF2CF808185FFEDCF4F
:10054000CE010E941802E9CFDF91CF91089580E09B
:1005500090E0892B29F00E940E0281110E94000078
:1005600080E090E0892B49F080E090E0892B29F031
:100570000E94000081110E94000080E090E0892B21
:1005800049F080E090E0892B29F00E940000811161
:100590000E94000080E090E0892B49F080E090E02C
:1005A000892B29F00E94000081110C94000008950D
:1005B0008150823108F05AC0E82FF0E08827EC51D2
:1005C000FD4F8F4F0C94FE0B04030803F602FC0250
:1005D000000336030B03110315031B031F0323033F
:1005E00029032D033603310337033B038091800039
:1005F0008F77809380000895809180008F7DF9CF60
:1006000080918000877FF5CF84B58F7784BD089572
:1006100084B58F7DFBCF8091B0008F778093B00041
:1006200008958091B0008F7DF9CF809190008F77F1
:10063000809390000895809190008F7DF9CF8091F4
:100640009000877FF5CF8091A0008F778093A000E6
:1006500008958091A0008F7DF9CF8091A000877FC1
:10066000F5CF809120018F778093200108958091AC
:1006700020018F7DF9CF80912001877FF5CFCF9327
:10068000DF93282F30E0F901E656FD4F8491F90100
:10069000EC5AFD4FD491F901E25FFD4FC491CC2398
:1006A000A1F081110E94D802EC2FF0E0EE0FFF1FA5
:1006B000EC50FE4FA591B491EC91ED2381E090E0D8
:1006C00009F480E0DF91CF91089580E090E0FACFC7
:1006D0001F93CF93DF93282F30E0F901E656FD4FAB
:1006E0008491F901EC5AFD4FD491F901E25FFD4F7D
:1006F000C491CC23A9F0162F81110E94D802EC2FAF
:10070000F0E0EE0FFF1FE652FE4FA591B4918FB7B8
:10071000F894EC91111108C0D095DE23DC938FBFC3
:10072000DF91CF911F910895DE2BF8CFCF93DF9308
:1007300090E0FC01EC5AFD4F2491825F9D4FFC013B
:1007400084918823D1F090E0880F991FFC01E05438
:10075000FE4FA591B491FC01E652FE4FC591D49194
:1007600061110EC09FB7F8948C91E22FE0958E2313
:100770008C932881E223E8839FBFDF91CF91089576
:100780008FB7F894EC91E22BEC938FBFF6CF3FB785
:10079000F8948091890490918A04A0918B04B0917F
:1007A0008C0426B5A89B05C02F3F19F00196A11D0A
:1007B000B11D3FBFBA2FA92F982F8827BC01CD01AB
:1007C000620F711D811D911D42E0660F771F881F0A
:1007D000991F4A95D1F708958F929F92AF92BF9239
:1007E000CF92DF92EF92FF924B015C010E94C70310
:1007F0006B017C010E94C7036C197D098E099F095A
:10080000683E734081059105A8F321E0821A9108A2
:10081000A108B10888EEC80E83E0D81EE11CF11CC7
:1008200081149104A104B10429F7FF90EF90DF90A7
:10083000CF90BF90AF909F908F900895089590E0D3
:1008400080E008958F929F92AF92BF920F931F9373
:10085000CF93DF93CDB7DEB7A1970FB6F894DEBF85
:100860000FBECDBF19A2423008F44AE08E010F5DE1
:100870001F4F842E912CB12CA12CA50194010E9414
:10088000DC0BE62FB901CA01EA3044F5E05DD8017E
:10089000EE938D01232B242B252B79F790E080E01C
:1008A000109769F0FD0101900020E9F73197AF0141
:1008B0004A1B5B0BBD018CE695E00E94A401A1964A
:1008C0000FB6F894DEBF0FBECDBFDF91CF911F9161
:1008D0000F91BF90AF909F908F900895E95CD7CF14
:1008E000FC0101900020E9F73197AF01481B590B3B
:1008F000BC018CE695E00C94A401CF93DF93EC014E
:1009000060E08E810E94680361E08E810E9468032E
:1009100060E08E810E9468038BE891E00197F1F717
:10092000DF91CF910895CF92DF92EF92FF920F93D4
:100930001F93CF93DF936C017C0187E0E80EF11CDD
:10094000D0E0C0E0062F10E0B8010C2E02C0759573
:1009500067950A94E2F76170F70181917F010E9427
:1009600068032196C430D10579F7C601DF91CF9194
:100970001F910F91FF90EF90DF90CF900C947D042A
:10098000CF92DF92EF92FF920F931F93CF93DF935B
:10099000EC01F62E642F8C810E9468038D818F3FBD
:1009A00019F060E00E9468030F2D10E08F8584FF2E
:1009B00025C06E0187E0C80ED11CF12CE12CB801D6
:1009C0000E2C02C0759567950A94E2F76170F601E6
:1009D00081916F010E946803FFEFEF1AFF0A88E020
:1009E000E816F10461F7CE01DF91CF911F910F91CD
:1009F000FF90EF90DF90CF900C947D04B80184E0DD
:100A0000759567958A95E1F7CE010E9493046F2D45
:100A1000CE01DF91CF911F910F91FF90EF90DF906A
:100A2000CF900C94930440E0682F8CE695E00C94F2
:100A3000C00481E00E9413058BE39FE10197F1F769
:100A40000895CF93DF93623029F490917B059860ED
:100A500090937B0560937F051092800590E49093BE
:100A6000810580938205805C8093830561E080919D
:100A700070050E949603809171058F3F19F061E027
:100A80000E94960361E0809172050E949603CCE675
:100A9000D5E09E012C56354080917B0584FD0BC02E
:100AA00084E090E021962817390744F461E08E81B4
:100AB0000E949603EECF88E090E0F4CF8BE39DE0B8
:100AC0000197F1F760E0809170050E94680360E093
:100AD000809172050E946803809171058F3F19F023
:100AE00060E00E94680380917B0584FD34C063E070
:100AF0008CE695E00E949304CBE4D6E4CE01019706
:100B0000F1F763E08CE695E00E9493042197F1F7FA
:100B100063E08CE695E00E94930483E592E0019700
:100B2000F1F762E08CE695E00E94930480917B05EA
:100B300080620E94130584E080937C058CE00E9413
:100B400013050E94190582E080937D0586E0DF9100
:100B5000CF910C94130580620E9413058BE496E4F8
:100B60000197F1F780917B0580620E94130583E570
:100B700092E00197F1F780917B0580620E94130556
:100B8000D5CF90917F05891710F08FEF890FE82F4F
:100B9000F0E0E459FA4F848980680C94130541E031
:100BA0000E94C00481E090E00895CF92DF92EF921E
:100BB000FF926C01990FEE08FF08F7FE16C041E0A6
:100BC0006DE28CE695E00E94C00466277727CB0192
:100BD0006C197D098E099F094AE00E942204019642
:100BE000FF90EF90DF90CF9008954AE0C701B601E3
:100BF000FF90EF90DF90CF900C9422041F920F9201
:100C00000FB60F9211240BB60F922F933F934F9371
:100C10005F936F937F938F939F93AF93BF93EF9364
:100C2000FF938FEC94E00E941802FF91EF91BF9127
:100C3000AF919F918F917F916F915F914F913F9174
:100C40002F910F900BBE0F900FBE0F901F90189515
:100C50001F920F920FB60F9211240BB60F922F9383
:100C60008F939F93EF93FF93E091DF04F091E00463
:100C70008081E091E504F091E60482FD1DC0908141
:100C80008091E8048F5F8F732091E904821741F00F
:100C9000E091E804F0E0E153FB4F958F8093E80486
:100CA000FF91EF919F918F912F910F900BBE0F901D
:100CB0000FBE0F901F9018958081F2CF1F920F9258
:100CC0000FB60F9211242F933F938F939F93AF935F
:100CD000BF938091850490918604A0918704B09180
:100CE00088043091840423E0230F2D3758F50196B2
:100CF000A11DB11D209384048093850490938604E4
:100D0000A0938704B09388048091890490918A0409
:100D1000A0918B04B0918C040196A11DB11D80930C
:100D2000890490938A04A0938B04B0938C04BF91A0
:100D3000AF919F918F913F912F910F900FBE0F9088
:100D40001F90189526E8230F0296A11DB11DD2CF42
:100D5000EFECF4E01382128288EE93E0A0E0B0E0C2
:100D600084839583A683B78384E092E09183808314
:100D700085EC90E09587848784EC90E09787868760
:100D800080EC90E0918B808B81EC90E0938B828B58
:100D900082EC90E0958B848B86EC90E0978B868B31
:100DA000118E128E138E148EECE6F5E013821282F1
:100DB00086E192E09183808388E084838FEF85834E
:100DC00089E0868384E0878385E0808786E0818769
:100DD00087E082871386148615861686178661E05B
:100DE00080E10C942105CF93DF9300D000D0CDB7E4
:100DF000DEB7789484B5826084BD84B5816084BD9B
:100E000085B5826085BD85B5816085BD80916E00A8
:100E1000816080936E0010928100809181008260D9
:100E20008093810080918100816080938100809116
:100E300080008160809380008091B1008460809305
:100E4000B1008091B00081608093B00080919100EA
:100E500082608093910080919100816080939100E5
:100E6000809190008160809390008091A1008260C9
:100E70008093A1008091A10081608093A100809166
:100E8000A00081608093A000809121018260809306
:100E900021018091210181608093210180912001B5
:100EA00081608093200180917A00846080937A0031
:100EB00080917A00826080937A0080917A008160CC
:100EC00080937A0080917A00806880937A001092F3
:100ED000C10060E085E10E94960360E084E10E9429
:100EE000960360E083E10E94960360E081E10E9446
:100EF000960360E08FE00E94960360E087E10E9425
:100F0000960360E088E10E94960360E089E10E9418
:100F1000960360E08AE10E94960360E08BE10E9404
:100F2000960360E08CE10E94960360E08DE10E94F0
:100F3000960360E08EE10E94960360E08FE10E94DC
:100F4000960361E08DE00E949603E091DF04F0914A
:100F5000E00482E08083E091DB04F091DC04108205
:100F6000E091DD04F091DE048FEC80831092E704C1
:100F7000E091E304F091E40486E08083E091E104F1
:100F8000F091E204808180618083E091E104F0913E
:100F9000E204808188608083E091E104F091E204C2
:100FA000808180688083E091E104F091E204808197
:100FB0008F7D808362E088E20E94210564EF71E00A
:100FC00080E090E00E94EC0301E010E0E2E3EE2E0E
:100FD000F12C85E10E943F039093CE048093CD04D1
:100FE00084E10E943F039A8389839093CC04809389
:100FF000CB0483E10E943F039093CA048093C90409
:1010000081E10E943F039093C8048093C7048FE05E
:101010000E943F039093C6048093C50487E10E9419
:101020003F039C838B839093C4048093C30488E123
:101030000E943F039E838D839093C2048093C104DA
:1010400089E10E943F035C019093C0048093BF0438
:101050008AE10E943F031C019093BE048093BD046B
:101060008BE10E943F032C019093BC048093BB044E
:101070008CE10E943F033C019093BA048093B90431
:101080008DE10E943F034C019093B8048093B70414
:101090008EE10E943F036C019093B6048093B504E7
:1010A0008FE10E943F032D813E81220F331F4B8130
:1010B0005C81240F351F3C832B839501220F331F46
:1010C000A20EB31E2B813C81A20EB31E220C331C38
:1010D000220C331C2A0C3B1C35E0349D5001359DFD
:1010E000B00C11242A0C3B1C46E0469D5001479D44
:1010F000B00C11242A0C3B1C27E0289D5001299D8F
:10110000B00C11242A0C3B1C73E0CC0CDD1C7A952E
:10111000E1F7C20CD31C29E0AC01249FC001259F3C
:10112000900D1124C80ED91ED092B404C092B304FD
:1011300089819A81892B09F446C060E08DE00E9484
:1011400068031092B2041092B1041092B00410928D
:10115000AF041092AE041092AD041092AC04109241
:10116000AB041092AA041092A9041092A804109241
:10117000A7041092A6041092A5041092A404109241
:10118000A3041092A2041092A1041092A004109241
:101190009F040E94190580E00E94C1058EE192E043
:1011A0000E94700481E00E94C10586E492E00E94E2
:1011B000700464E670E080E090E00E94EC0310931D
:1011C000B0040093AF042091B3043091B40412161C
:1011D00013060CF0BAC08091AF049091B004892B33
:1011E00009F483C01092B0041092AF043093A404A9
:1011F0002093A304F9013197E930F105B8F4882769
:10120000EB5FF64F8F4F0C94FE0B0E093409390932
:101210003E09430948094D095209570980919D0427
:1012200090919E049093A00480939F0480919F04CA
:101230009091A004892B09F03FC00E94190580E01D
:101240000E94C10583E592E00E94700481E00E9443
:10125000C1058AE792E00E94700464E670E080E0D5
:1012600090E00E94EC0371C080919B0490919C04DB
:10127000D9CF8091990490919A04D4CF809197040A
:1012800090919804CFCF8091950490919604CACF05
:101290008091930490919404C5CF80919104909192
:1012A0009204C0CF80918F0490919004BBCF809125
:1012B0008D0490918E04B6CF1093AE040093AD04CC
:1012C0000E94190580E00E94C10581E992E00E9418
:1012D000700480919F049091A0040E94D50581E044
:1012E0000E94C10584EB92E0B6CF8091AB0490914F
:1012F000AC04892B51F11092AC041092AB043093E2
:10130000A6042093A50480919F049091A0048217C5
:1013100093070CF023C10E94190580E00E94C105CB
:1013200080ED92E00E94700481E00E94C10583EF8D
:1013300092E00E94700464E670E080E090E00E9419
:10134000EC031093AE040093AD048091C50490911A
:10135000C604892B21F18091AD049091AE04892BB4
:10136000F1F00E94190580E00E94C10589E593E033
:101370000E94700481E00E94C1058EE793E00E9404
:10138000700464E670E080E090E00E94EC0310924C
:10139000AE041092AD041093AC040093AB048091A2
:1013A000C7049091C804892BC1F18091AD0490913C
:1013B000AE042091A9043091AA04822B932B209192
:1013C000A7043091A804822B932B892B31F1109222
:1013D000AE041092AD041092AA041092A9041092C7
:1013E000A8041092A7041093AC040093AB040E94CD
:1013F000190580E00E94C10589E593E00E94700410
:1014000081E00E94C1058EE793E00E94700464E6CB
:1014100070E080E090E00E94EC038091C90490911C
:10142000CA04892B29F18091A9049091AA04892BDF
:1014300009F4F0C01092AA041092A9041093A80411
:101440000093A7040E94190580E00E94C1058EE95F
:1014500093E00E94700481E00E94C10581EC93E05A
:101460000E94700464E670E080E090E00E94EC036B
:101470008091CD049091CE04892B09F46CC0F09238
:101480009E04E0929D04F0929C04E0929B04F092F2
:101490009A04E0929904F0929804E0929704F092F2
:1014A0009604E0929504F0929404E09293041092D2
:1014B00092041092910485E090E0909390048093C0
:1014C0008F04F0928E04E0928D0460E08DE00E9423
:1014D00068031092B2041092B1041092B0041092FA
:1014E000AF041092AE041092AD041092AC041092AE
:1014F000AB041092AA041092A9041092A8041092AE
:10150000A7041092A6041092A5041092A4041092AD
:10151000A3041092A2041092A1041092A0041092AD
:101520009F040E94190580E00E94C1058EE192E0AF
:101530000E94700481E00E94C10586E492E00E944E
:10154000700464E670E080E090E00E94EC03109389
:10155000B0040093AF040E94A7023BCDE091A30426
:10156000F091A4043197E930F10590F58827E4540F
:10157000F54F8F4F0C94FE0BC50ACF0AD20AD50A3D
:10158000D80ADB0ADE0A050B070B44EF51E0249F63
:10159000C001259F900D349F900D112415C040E986
:1015A00051E0F5CF40E253E0F2CF46EB53E0EFCF0E
:1015B0004AE852E0ECCF4CEB52E0E9CF48EC429FD6
:1015C000C001439F900D11249093A2048093A10425
:1015D0001093AA040093A9040E94190580E00E94B8
:1015E000C10584E193E00E9470048091A104909170
:1015F000A2040E94D5058BE293E00E94700481E072
:101600000E94C10586E393E026CE48E7D8CF4CE29E
:1016100051E0BDCF8091A7049091A804892B09F4D3
:1016200027CF1092A8041092A70480ED97E0909322
:10163000B2048093B1048091A1049091A204813DF1
:1016400027E092079CF01093AE040093AD040E9433
:10165000190580E00E94C10580ED93E00E947004AE
:1016600081E00E94C10585E093E0FACE40ED57E0AD
:10167000481B590B5093B2044093B10420919F042E
:101680003091A0048091A5049091A604281B390BE9
:101690003093A00420939F04E091A304F091A4044C
:1016A0003197E930F10598F48827E65AF44F8F4FC7
:1016B0000C94FE0B630BB40BB90BBE0BC30BC80B26
:1016C000CD0BD20BD70B30939E0420939D0461E089
:1016D0008DE00E9468030E94190580E00E94C10508
:1016E00084EF93E00E94700481E00E94C10582E1D2
:1016F00094E00E94700480ED97E00E94D5058DE291
:1017000094E00E94700464EF71E080E090E00E9439
:10171000EC030E94190580E00E94C10582E394E079
:101720000E94700481E00E94C1058091B1049091F3
:10173000B2040E94D5058DE294E00E94700464EF2B
:1017400071E080E090E00E94EC030E94190580E0C7
:101750000E94C1058BE494E00E94700481E00E9425
:10176000C1058EE694E07CCE30939C0420939B04CC
:10177000AECF30939A0420939904A9CF3093980464
:1017800020939704A4CF30939604209395049FCF81
:1017900030939404209393049ACF3093920420932F
:1017A000910495CF3093900420938F0490CF309381
:1017B0008E0420938D048BCFA1E21A2EAA1BBB1B93
:1017C000FD010DC0AA1FBB1FEE1FFF1FA217B3070D
:1017D000E407F50720F0A21BB30BE40BF50B661F23
:1017E000771F881F991F1A9469F7609570958095E7
:1017F00090959B01AC01BD01CF010895EE0FFF1F35
:10180000881F8BBF0790F691E02D1994F894FFCFB5
:10181000000000003A02A401D10187020202E001A7
:10182000F40100000000CF05A4011F041E0453654D
:101830006C65637420796F75722044657374696E8A
:101840006174696F6E202850726573732061206423
:1018500069676974200066726F6D203120746F2093
:10186000392900536F7272792120416C6C207469A0
:10187000636B65747320696E207468697320726F7E
:10188000757465206861766520006265656E2073F9
:101890006F6C642E20507265737320657869742EA6
:1018A000005469636B65747320617661696C616271
:1018B0006C6520666F72207468697320726F75742E
:1018C000652020002E5072657373206E6578742039
:1018D000746F20627579207469636B6574732E0070
:1018E000596F7520656E74657265642061206E7530
:1018F0006D626572206772656174657220746861DB
:101900006E2000617661696C61626C652074696348
:101910006B6574732C2050726573732063616E6302
:10192000656C2E00546865207469636B6574732060
:1019300077696C6C20636F7374200054616B612E47
:10194000204172652000796F7520737572653F20A4
:10195000507265737320436F6E6669726D206F728B
:101960002043616E63656C2E00486F77206D616E59
:1019700079207469636B65747320646F20796F7567
:101980002077616E7420746F206275793F00285053
:10199000726573732061206469676974206265747D
:1019A0007765656E203120616E6420392900506CA6
:1019B0006561736520696E7365727420796F7572E5
:1019C0002054726176656C204361726420616E649C
:1019D0000020507265737320436F6E6669726D00EC
:1019E000596F7520646F206E6F7420686176652072
:1019F00073756666696369656E742062616C616E99
:101A000063652E00596F757220707572636861731B
:101A10006520776173207375636365737366756C96
:101A20002E00596F75722070726576696F7573201C
:101A300062616C616E636520776173200020546B76
:101A40002E0020616E642063757272656E74206270
:101A5000616C616E63652069732000506C65617311
:101A60006520636F6C6C65637420796F7572207488
:101A7000726176656C206361726420262000207498
:101A800069636B6574732E50726573732065786932
:041A9000742E0000B0
:00000001FF
